{
  "contractName": "A",
  "abi": [
    {
      "inputs": [],
      "name": "getBalance",
      "outputs": [
        {
          "internalType": "uint256",
          "name": "",
          "type": "uint256"
        }
      ],
      "stateMutability": "view",
      "type": "function"
    },
    {
      "inputs": [],
      "name": "deposit",
      "outputs": [],
      "stateMutability": "payable",
      "type": "function"
    }
  ],
  "bytecode": "0x6080604052348015600f57600080fd5b5060ab8061001e6000396000f3fe60806040526004361060265760003560e01c806312065fe014602b578063d0e30db0146053575b600080fd5b348015603657600080fd5b50603d605b565b6040518082815260200191505060405180910390f35b60596068565b005b6000804790508091505090565b346000540160008190555056fea264697066735822122074999a4da6f65128624886616d5ac443a1b57b9923d106d835c62c7c4f997b9764736f6c63430007060033",
  "immutableReferences": {},
  "source": "// SPDX-License-Identifier: MIT\npragma solidity >=0.4.22 <0.9.0;\n\ncontract A {\n    uint256 contractBalance;\n\n    function getBalance() public view returns (uint256) {\n        uint256 balance = address(this).balance;\n        return balance;\n    }\n\n    function deposit() public payable {\n        contractBalance = contractBalance + msg.value;\n    }\n}\n",
  "sourcePath": "/Users/christianroque/Desktop/EthereumBridgeBot/contracts/contract.sol",
  "compiler": {
    "name": "solc",
    "version": "0.7.6+commit.7338295f.Emscripten.clang"
  },
  "schemaVersion": "3.3.4",
  "updatedAt": "2021-07-24T01:25:23.977Z",
  "devdoc": {
    "kind": "dev",
    "methods": {},
    "version": 1
  },
  "userdoc": {
    "kind": "user",
    "methods": {},
    "version": 1
  }
}